:020000040000FA
:1000000000040020810A000015070000610A0000BA
:100010001F07000029070000330700000000000050
:10002000000000000000000000000000A50A000021
:100030003D070000000000004707000051070000D6
:100040005B070000650700006F07000079070000EC
:10005000830700008D07000097070000A10700003C
:10006000AB070000B5070000BF070000C90700008C
:10007000D3070000DD070000E7070000F1070000DC
:10008000FB070000050800000F0800001908000029
:10009000230800002D080000370800004108000078
:1000A0004B080000550800005F08000069080000C8
:1000B000730800007D080000870800009108000018
:1000C0009B080000A5080000AF080000B908000068
:1000D000C3080000CD080000D7080000E1080000B8
:1000E000EB080000F5080000FF0800000909000007
:1000F000130900001D090000270900003109000054
:100100003B0900001FB500F003F88DE80F001FBD8C
:1001100000F0ACBC40F6FC7108684FF01022401CA7
:1001200008D00868401C09D00868401C04D0086842
:1001300000F037BA9069F5E79069F9E7704770B554
:100140000B46010B184400F6FF70040B4FF0805073
:100150000022090303692403406943431D1B104621
:1001600000F048FA29462046BDE8704000F042BA47
:10017000F0B54FF6FF734FF4B4751A466E1E11E0DA
:10018000A94201D3344600E00C46091B30F8027B3B
:10019000641E3B441A44F9D19CB204EB134394B25D
:1001A00004EB12420029EBD198B200EB134002EBB2
:1001B000124140EA0140F0BDF34992B00446D1E952
:1001C0000001CDE91001FF224021684600F0F4FB58
:1001D00094E80F008DE80F00684610A902E004C8FB
:1001E00041F8042D8842FAD110216846FFF7C0FF7C
:1001F0001090AA208DF8440000F099F9FFF78AFFCB
:1002000040F6FC7420684FF01025401C0FD0206889
:1002100010226946803000F078F92068401C08D030
:100220002068082210A900F070F900F061F9A869AF
:10023000EEE7A869F5E74FF080500369406940F6A2
:10024000FC71434308684FF01022401C06D0086838
:1002500000F58050834203D2092070479069F7E788
:100260000868401C04D00868401C03D00020704778
:100270009069F9E70420704770B504460068C34DE3
:10028000072876D2DFE800F033041929631E250021
:10029000D4E9026564682946304600F062F92A46CE
:1002A0002146304600F031F9AA002146304600F0E0
:1002B00057FB002800D0032070BD00F009FC4FF46C
:1002C000805007E0201D00F040F90028F4D100F034
:1002D000FFFB60682860002070BD241D94E80700C3
:1002E000920000F03DFB0028F6D00E2070BDFFF715
:1002F000A2FF0028FAD1D4E901034FF0805100EBAE
:10030000830208694D69684382420ED840F6F8704E
:1003100005684FF010226D1C09D0056805EB8305B8
:100320000B6949694B439D4203D9092070BD55694A
:10033000F4E70168491C03D00068401C02D003E0C8
:100340005069FAE70F2070BD2046FFF735FFFFF731
:1003500072FF0028F7D1201D00F0F7F80028F2D135
:1003600060680028F0D100F0E2F8FFF7D3FE00F05B
:10037000BFF8072070BD10B50C46182802D0012028
:10038000086010BD2068FFF777FF206010BD41684E
:10039000054609B1012700E0002740F6F8742068FF
:1003A0004FF01026401C2BD02068AA68920000F065
:1003B000D7FA38B3A86881002068401C27D020688D
:1003C000FFF7BDFED7B12068401C22D026684FF051
:1003D0008050AC686D68016942695143A9420DD9EA
:1003E000016940694143A14208D92146304600F0E5
:1003F000B8F822462946304600F087F800F078F831
:100400007069D2E700F093F8FFF784FEF6E77069B1
:10041000D6E77669DBE740F6FC7420684FF01026DB
:10042000401C23D02068401C0CD02068401C1FD0EA
:100430002568206805F18005401C1BD027683879A5
:10044000AA2819D040F6F8700168491C42D001680A
:10045000491C45D00168491C3ED001680968491C07
:100460003ED00168491C39D000683EE0B069DAE747
:10047000B569DEE7B769E2E710212846FFF778FEA5
:100480003968814222D12068401C05D0D4F8001080
:1004900001F18002C03107E0B169F9E730B108CA63
:1004A00051F8040D984201D1012000E000208A4259
:1004B000F4D158B1286810B1042803D0FEE72846CB
:1004C000FFF765FF3149686808600EE0FFF722FE1C
:1004D00000F00EF87169BBE77169BFE7706904E06D
:1004E0004FF480500168491C01D000F0CBFAFEE7C0
:1004F000BFF34F8F26480168264A01F4E06111439B
:100500000160BFF34F8F00BFFDE72DE9F0411746B3
:100510000D460646002406E03046296800F054F8EF
:10052000641C2D1D361DBC42F6D3BDE8F08140F69B
:10053000FC700168491C04D0D0F800004FF48051D1
:10054000FDE54FF010208069F8E74FF080510A690F
:10055000496900684A43824201D810207047002050
:10056000704770B50C4605464FF4806608E0284693
:1005700000F017F8B44205D3A4F5806405F5805562
:10058000002CF4D170BD0000F40A0000000000202F
:100590000CED00E00400FA05144801680029FCD0C5
:1005A0007047134A0221116010490B68002BFCD0E0
:1005B0000F4B1B1D186008680028FCD0002010603D
:1005C00008680028FCD07047094B10B501221A605A
:1005D000064A1468002CFCD0016010680028FCD08A
:1005E0000020186010680028FCD010BD00E4014015
:1005F00004E5014070B50C46054600F073F810B9EB
:1006000000F07EF828B121462846BDE8704000F091
:1006100007B821462846BDE8704000F037B8000012
:100620007FB5002200920192029203920A0B000B06
:100630006946012302440AE0440900F01F0651F80C
:10064000245003FA06F6354341F82450401C8242F8
:10065000F2D80D490868009A10430860081D016827
:10066000019A1143016000F03DF800280AD00649C4
:1006700010310868029A10430860091D0868039A3F
:10068000104308607FBD00000006004030B50F4CED
:10069000002200BF04EB0213D3F800582DB9D3F8A1
:1006A000045815B9D3F808581DB1521C082AF1D3C3
:1006B00030BD082AFCD204EB0212C2F80008C3F8CD
:1006C00004180220C3F8080830BD000000E0014013
:1006D0004FF08050D0F83001082801D0002070473A
:1006E000012070474FF08050D0F83011062905D016
:1006F000D0F83001401C01D0002070470120704725
:100700004FF08050D0F830010A2801D00020704707
:100710000120704708208F490968095808471020B0
:100720008C4909680958084714208A4909680958FA
:100730000847182087490968095808473020854923
:100740000968095808473820824909680958084744
:100750003C20804909680958084740207D490968BC
:100760000958084744207B49096809580847482028
:1007700078490968095808474C207649096809589A
:10078000084750207349096809580847542071499F
:1007900009680958084758206E49096809580847E8
:1007A0005C206C4909680958084760206949096854
:1007B00009580847642067490968095808476820AC
:1007C00064490968095808476C2062490968095852
:1007D000084770205F4909680958084774205D4937
:1007E00009680958084778205A490968095808478C
:1007F0007C205849096809580847802055490968EC
:10080000095808478420534909680958084788202F
:1008100050490968095808478C204E490968095809
:10082000084790204B4909680958084794204949CE
:10083000096809580847982046490968095808472F
:100840009C204449096809580847A0204149096883
:1008500009580847A4203F49096809580847A820B3
:100860003C49096809580847AC203A4909680958C1
:100870000847B0203749096809580847B420354966
:10088000096809580847B8203249096809580847D3
:10089000BC203049096809580847C0202D4909681B
:1008A00009580847C4202B49096809580847C82037
:1008B0002849096809580847CC2026490968095879
:1008C0000847D0202349096809580847D4202149FE
:1008D000096809580847D8201E4909680958084777
:1008E000DC201C49096809580847E02019490968B3
:1008F00009580847E4201749096809580847E820BB
:100900001449096809580847EC2012490968095830
:100910000847F0200F49096809580847F4200D4995
:10092000096809580847F8200A490968095808471A
:10093000FC2008490968095808475FF48070054998
:10094000096809580847000003480449024A034B54
:100950007047000000000020000B0000000B0000AA
:1009600040EA010310B59B070FD1042A0DD310C82C
:1009700008C9121F9C42F8D020BA19BA884201D97E
:10098000012010BD4FF0FF3010BD1AB1D30703D0C6
:10099000521C07E0002010BD10F8013B11F8014B7C
:1009A0001B1B07D110F8013B11F8014B1B1B01D198
:1009B000921EF1D1184610BD02F0FF0343EA032254
:1009C00042EA024200F005B87047704770474FF0A6
:1009D00000020429C0F0128010F0030C00F01B800C
:1009E000CCF1040CBCF1020F18BF00F8012BA8BF1A
:1009F00020F8022BA1EB0C0100F00DB85FEAC17CDE
:100A000024BF00F8012B00F8012B48BF00F8012B90
:100A100070474FF0000200B51346944696462039C1
:100A200022BFA0E80C50A0E80C50B1F12001BFF4A7
:100A3000F7AF090728BFA0E80C5048BF0CC05DF80D
:100A400004EB890028BF40F8042B08BF704748BF5B
:100A500020F8022B11F0804F18BF00F8012B7047CF
:100A6000014B1B68DB6818470000002009480A4951
:100A70007047FFF7FBFFFFF745FB00BD20BFFDE719
:100A8000064B1847064A1060016881F308884068E1
:100A900000470000000B0000000B000017040000DE
:100AA000000000201EF0040F0CBFEFF30881EFF3ED
:100AB0000981886902380078182803D100E0000015
:100AC000074A1047074A12682C3212681047000084
:100AD00000B5054B1B68054A9B58984700BD0000B0
:100AE0007703000000000020F00A0000040000006E
:100AF000001000000000000000FFFFFF0090D00386
:10100000B813002065520200F1C00000CB5102006D
:10101000F1C00000F1C00000F1C0000000000000BD
:10102000000000000000000000000000F15202007B
:10103000F1C0000000000000F1C00000F1C000009D
:10104000595302005F530200F1C00000F1C00000DC
:10105000F1C00000F1C00000F1C00000F1C00000CC
:1010600065530200F1C00000F1C000006B530200A4
:10107000F1C0000071530200775302007D5302005B
:10108000F1C00000F1C00000F1C00000F1C000009C
:10109000F1C00000F1C00000F1C00000F1C000008C
:1010A000F1C0000083530200F1C00000F1C0000055
:1010B000F1C00000F1C00000F1C00000F1C000006C
:1010C00089530200F1C00000F1C00000F1C000002F
:1010D000F1C00000F1C00000F1C00000F1C000004C
:1010E000F1C00000F1C00000F1C00000F1C000003C
:1010F000F1C00000F1C00000F1C00000F1C000002C
:10110000F1C00000F1C0000000F002F824F099F8EE
:101110000AA090E8000C82448344AAF10107DA4552
:1011200001D124F08EF8AFF2090EBAE80F0013F0E7
:10113000010F18BFFB1A43F00103184730470200A4
:10114000504702000A444FF0000C10F8013B13F026
:10115000070408BF10F8014B1D1108BF10F8015B10
:10116000641E05D010F8016B641E01F8016BF9D103
:1011700013F0080F1EBF10F8014BAD1C0C1B09D15A
:101180006D1E58BF01F801CBFAD505E014F8016BCC
:1011900001F8016B6D1EF9D59142D6D3704700005E
:1011A0000023002400250026103A28BF78C1FBD870
:1011B000520728BF30C148BF0B6070471FB500F011
:1011C00003F88DE80F001FBD24F038B870B51A4C35
:1011D00005460A202070A01C00F0D5F85920A080F8
:1011E00029462046BDE8704008F08EB908F097B94E
:1011F00070B50C461149097829B1A0F160015E294A
:1012000008D3012013E0602804D0692802D043F2FB
:1012100001000CE020CC0A4E94E80E0006EB8000A2
:10122000A0F58050241FD0F8806E2846B04720607B
:1012300070BD012070470000080000201800002049
:10124000D45302003249884201D201207047002065
:10125000704770B50446A0F500002E4EB0F1786FCF
:1012600002D23444A4F500042948844201D2012565
:1012700000E0002500F043F848B125B9B44204D39A
:101280002548006808E0012070BD002070BD002DD9
:10129000F9D1B442F9D321488442F6D2F3E710B52C
:1012A0000446A0F50000B0F1786F03D21948044459
:1012B000A4F5000400F023F84FF0804130B1164847
:1012C000006804E08C4204D2012003E01348844209
:1012D000F8D2002080F0010010BD10B520B1FFF75A
:1012E000DEFF08B1012010BD002010BD10B520B1F7
:1012F000FFF7AFFF08B1012010BD002010BD084866
:1013000008490068884201D10120704700207047D9
:1013100000600200000000201C00002008000020E7
:1013200058000020BEBAFECA10B5044600210120B4
:1013300000F041F800210B2000F03DF800210820CA
:1013400000F039F80421192000F035F804210D20AF
:1013500000F031F804210E2000F02DF804210F20B8
:1013600000F029F80421C84300F025F806211620D2
:1013700000F021F80621152000F01DF82046FFF7A7
:1013800025FF002010BDCB2101807047FFF72EBF45
:101390001148704710487047104A10B514680F4B39
:1013A0000F4A08331A60FFF723FF0C48001D046042
:1013B00010BD704770474907090E002804DB00F193
:1013C000E02080F80014704700F00F0000F1E020EA
:1013D00080F8141D7047000003F900421005024018
:1013E00001000001FD48002101604160018170475A
:1013F0002DE9FF4F93B09B46209F160004460DD069
:101400001046FFF726FF18B1102017B0BDE8F08F87
:101410003146012001F0D3FE0028F6D101258DF8D8
:1014200042504FF4C050ADF84000002210A92846A9
:1014300006F0CCFC0028E8D18DF84250A8464FF4C5
:1014400028500025ADF840001C2229466846079523
:101450000CF0D3FF9DF81C000DF11C0A20F00F00CA
:10146000401C20F0F00010308DF81C0020788DF822
:101470001D0061789DF81E000DF1400961F34200E6
:1014800040F001008DF81E009DF8000008AA40F011
:1014900002008DF800002089ADF83000ADF8325020
:1014A0006089ADF83400CDF82CA060680E900AA9D0
:1014B000CDF82890684606F07EFA0028A5D160682D
:1014C000FFF70BFF40B16068FFF710FF20B96078AD
:1014D00000F00300022801D0012000E00020BF4CF2
:1014E00008AA0AA92072BDF8200020808DF8428049
:1014F00042F60120ADF840009DF81E0020F00600E5
:10150000801C20F001008DF81E000220ADF8300094
:10151000ADF8340014A80E90684606F04CFA002886
:1015200089D1BDF82000608036B1211D304600F021
:101530005FF90028C2D109E0BBF1000F05D00CF023
:10154000D7FCE8BB0CF0D4FCD0BBA58017B1012FB1
:1015500043D04AE08DF8428042F6A620ADF8400024
:1015600046461C220021684607950CF046FF9DF870
:101570001C00ADF8346020F00F00401C20F0F0009B
:1015800010308DF81C009DF81D0020F0FF008DF834
:101590001D009DF81E0020F0060040F00100801C98
:1015A0008DF81E009DF800008DF8446040F00200A8
:1015B0008DF80000CDE90A9AADF8306011A800E07E
:1015C00011E00E9008AA0AA9684606F0F4F900286E
:1015D000A6D1BDF82000E08008E00CF089FC10B92D
:1015E0000CF086FC08B103200FE7E58000200CE733
:1015F0003EB50446794D0820ADF80000A88828B112
:101600002046FFF726FE18B110203EBD06203EBD45
:101610002146012001F0D3FD0028F8D12088ADF843
:1016200004006088ADF80600A088ADF80800E088E6
:10163000ADF80A00A88801AB6A46002106F0C2FD99
:10164000BDF800100829E2D003203EBD7FB5634DF0
:101650000446A88868B1002002900820ADF8080070
:10166000CDF80CD02046FFF7F4FD20B1102004B0D7
:1016700070BD0620FBE7A98802AA4FF6FF7006F0AE
:10168000E3FF0028F3D1BDF80810082901D003209A
:10169000EDE7BDF800102180BDF802106180BDF8B3
:1016A0000410A180BDF80610E180E0E701B582B02A
:1016B0000220ADF80000494802AB6A46408800218C
:1016C00006F080FDBDF80010022900D003200EBDF9
:1016D0001CB5002100910221ADF800100190FFF728
:1016E000DEFD08B110201CBD3C486A4641884FF61B
:1016F000FF7006F0A9FFBDF800100229F3D0032007
:101700001CBDFEB5354C06461546207A0F46C0076F
:1017100005D00846FFF79DFD18B11020FEBD0F2033
:10172000FEBDF82D01D90C20FEBD3046FFF791FD1E
:1017300018BB208801A905F040FE0028F4D13078BC
:101740008DF80500208801A906F01AFD0028EBD1CC
:1017500000909DF800009DF8051040F002008DF803
:101760000000090703D040F008008DF80000208831
:10177000694606F0A2FC0028D6D1ADF808502088B2
:101780003B4602AA002106F01DFDBDF80810A94243
:10179000CAD00320FEBD7CB5054600200090019014
:1017A0000888ADF800000C4628460195FFF795FD26
:1017B00018B92046FFF773FD08B110207CBD15B1A4
:1017C000BDF8000060B105486A4601884FF6FF7019
:1017D00006F03AFFBDF8001021807CBD28020020F1
:1017E0000C20FAE72F48C088002800D0012070475D
:1017F00030B5044693B000200D46014600901422F7
:1018000001A80CF0FAFD1C22002108A80CF0F5FD3F
:101810009DF80000CDF808D020F00F00401C20F00B
:10182000F00010308DF800009DF8010006AA20F0AD
:10183000FF008DF801009DF8200001A940F0020092
:101840008DF8200001208DF8460042F60420ADF806
:10185000440011A801902088ADF83C006088ADF8E4
:101860003E00A088ADF84000E088ADF842009DF849
:10187000020020F00600801C20F001008DF802001C
:101880000820ADF80C00ADF810000FA8059008A8CE
:1018900006F091F8002803D1BDF818002880002038
:1018A00013B030BD28020020F0B5007B059F1E4616
:1018B00014460D46012800D0FFDF0C2030803A206E
:1018C0003880002C08D0287A032806D0287B0128ED
:1018D00000D0FFDF17206081F0BDA889FBE72DE96C
:1018E000F04786B0144691F80C900E9A0D46B9F167
:1018F000010F0BD01021007B2E8A8846052807D0C7
:10190000062833D0FFDF06B0BDE8F0870221F2E7FA
:10191000E8890C2100EB400001EB400018803320E7
:101920001080002CEFD0E889608100271AE0009633
:10193000688808F1020301AA696900F086FF06EBD6
:101940000800801C07EB470186B204EB4102BDF89A
:10195000040090810DF1060140460E3212F0C6FEE1
:101960007F1CBFB26089B842E1D8CCE73420108038
:10197000E889B9F1010F11D0122148430E301880C7
:10198000002CC0D0E88960814846B9F1010F00D031
:101990000220207300270DF1040A1FE00621ECE766
:1019A0000096688808F1020301AA696900F04DFFFA
:1019B00006EB0800801C86B2B9F1010F12D007EBCC
:1019C000C70004EB4000BDF80410C18110220AF1E9
:1019D000020110300CF0E7FC7F1CBFB26089B842F6
:1019E000DED890E707EB470104EB4102BDF80400A5
:1019F000D0810AF102014046103212F077FEEBE787
:101A00002DE9F0470E4688B090F80CC096F80C808F
:101A1000378AF5890C20109902F10C044FF0000A66
:101A2000BCF1030F08D0BCF1040F3FD0BCF1070F8D
:101A30007ED0FFDF08B067E705EB850C00EB4C00BC
:101A4000188031200880002AF4D0A8F1060000F0A8
:101A5000FF09558126E01622002101A80CF0CDFCDB
:101A600000977088434601AA716900F0EEFEBDF848
:101A700004002080BDF80600E080BDF80800208149
:101A8000A21C0DF10A01484612F030FEB9F1000F18
:101A900000D018B184F804A0A4F802A007EB080055
:101AA00087B20A346D1EADB2D5D2C3E705EB850C03
:101AB00000EB4C00188032200880002ABAD0A8F130
:101AC000050000F0FF09558137E000977088434614
:101AD00001AA716900F0B9FE9DF80600BDF8041076
:101AE000E1802179420860F3000162F3410182083C
:101AF00062F38201C20862F3C301020962F30411B6
:101B0000420962F34511820962F386112171C0090D
:101B10006071BDF80700208122460DF10901484699
:101B200012F0E4FD18B184F802A0A4F800A000E0CF
:101B300007E007EB080087B20A346D1EADB2C4D2CD
:101B400078E7A8F1020084B205FB08F000F10E0C62
:101B5000A3F800C035230B80002AA6D055819481BC
:101B6000009783B270880E32716900F06EFE61E7F3
:101B70002DE9F84F1E460A9D0C4681462AB1607A2F
:101B800000F58070D080E089108199F80C000C2756
:101B90004FF000084FF00E0A0D2872D2DFE800F077
:101BA0009D070E1B272F374554697272720021461C
:101BB00048460095FFF778FEBDE8F88F207B9146F8
:101BC000082802D0032800D0FFDF3780302009E04A
:101BD000A9F80A80F0E7207B9146042800D0FFDFB7
:101BE000378031202880B9F1000FF1D1E4E7207B64
:101BF0009146042800D0FFDF37803220F2E7207BB7
:101C00009146022800D0FFDF37803320EAE7207BAF
:101C10001746022800D0FFDF3420A6F800A0288055
:101C2000002FC9D0A7F80A80C6E7207B17460428F2
:101C300000D0FFDF3520A6F800A02880002FBBD001
:101C40004046A7F80A8012E0207B1746052802D0FC
:101C5000062800D0FFDF1020308036202880002F9B
:101C6000AAD0E0897881A7F80E80B9F80E00B88173
:101C7000A2E7207B9146072800D0FFDF378037207E
:101C8000B0E72AE04FF0120018804FF0380017003C
:101C9000288091D0E0897881A7F80E80A7F810807D
:101CA00099F80C000A2805D00B2809D00C280DD073
:101CB000FFDF81E7207B0A2800D0FFDF01200AE058
:101CC000207B0B2800D0FFDF042004E0207B0C28C1
:101CD00000D0FFDF052038736EE7FFDF6CE770B5DB
:101CE0000C46054601F0AFFB20B10078222804D253
:101CF000082070BD43F2020070BD0521284610F097
:101D00005DFF206008B1002070BD032070BD30B4BD
:101D10004880087820F00F00C01C20F0F0009030C0
:101D200001F8080B1DCA81E81D0030BC07F06DBC2E
:101D30002DE9FF4784B00027824602970798904616
:101D4000894612300AF025FA401D20F00306079854
:101D500028B907A95046FFF7C2FF002854D1B9F1AE
:101D6000000F05D00798017B19BB052504681BE00F
:101D700098F80000092803D00D2812D0FFDF46E0B4
:101D8000079903254868B0B3497B42887143914263
:101D900039D98AB2B3B2011D10F083FD0446078021
:101DA00002E0079C042508340CB1208810B1032DF3
:101DB00029D02CE00798012112300AF01CFAADF866
:101DC0000C00024602AB2946504608F0A4FA070070
:101DD00001D1A01C029007983A461230C8F80400BE
:101DE000A8F802A003A94046029B0AF011FAD8B154
:101DF0000A2817D200E006E0DFE800F00709141413
:101E0000100B0D141412132014E6002012E61120FA
:101E100010E608200EE643F203000BE6072009E671
:101E20000D2007E6032005E6BDF80C002346CDE9AA
:101E300000702A465046079900F017FD57B9032D48
:101E400008D10798B3B2417B406871438AB2011D43
:101E500010F03BFDB9F1000FD7D0079981F80C9035
:101E6000D3E72DE9FE4F91461A881C468A468046E4
:101E7000FAB102AB494608F04EFA050019D04046C7
:101E8000A61C278810F0DFFF3246072629463B466E
:101E9000009610F0ECFB20882346CDE900504A461E
:101EA0005146404600F0E1FC002020800120BDE8C2
:101EB000FE8F0020FBE710B586B01C46AAB10423B4
:101EC0008DF800301388ADF808305288ADF80A203C
:101ED0008A788DF80E200988ADF80C1000236A4628
:101EE0002146FFF725FF06B010BD1020FBE770B5B7
:101EF0000D46052110F062FE040000D1FFDF2946E7
:101F000004F11200BDE870400AF05EB92DE9F84313
:101F10000D468046002607F075FB044628781028F9
:101F200078D2DFE800F0773B345331311231313170
:101F30000831313131312879001FC0B2022801D077
:101F4000102810D114BBFFDF35E004B9FFDF0521F5
:101F5000404610F033FE007B032806D004280BD047
:101F6000072828D0FFDF072655E02879801FC0B258
:101F7000022820D050B1F6E72879401FC0B20228CD
:101F800019D0102817D0EEE704B9FFDF13E004B929
:101F9000FFDF287901280ED1172137E005214046BF
:101FA00010F00CFE070000D1FFDF07F112014046E0
:101FB0000AF0E7F82CB12A4621464046FFF7A7FE73
:101FC00029E01321404602F01DFD24E004B9FFDFA3
:101FD0000521404610F0F2FD060000D1FFDF694602
:101FE00006F112000AF0D7F8060000D0FFDFA9883A
:101FF000172901D2172200E00A46BDF800008242EC
:1020000002D9014602E005E01729C5D3404600F099
:102010003CFCD0E7FFDF3046BDE8F883401D20F0F0
:10202000030219B102FB01F0001D00E00020104482
:10203000704713B5009848B10024684610F0DBFBE8
:10204000002C02D1F74A009911601CBD0124002028
:10205000F4E72DE9F0470C461546242200212046DE
:102060000CF0CBF905B9FFDFA87860732888DFF89A
:10207000B4A3401D20F00301AF788946DAF80000D0
:1020800010F0D7FB060000D1FFDF4FF000082660FC
:10209000A6F8008077B109FB07F1091D0AD0DAF82C
:1020A000000010F0C6FB060000D1FFDF6660C6F836
:1020B000008001E0C4F80480298804F11200BDE822
:1020C000F0470AF04FB82DE9F047804601F11200C1
:1020D0000D4681460AF05DF8401DD24F20F0030204
:1020E0006E7B14462968386810F0CEFB3EB104FBC5
:1020F00006F2121D03D06968386810F0C5FB052090
:1021000010F004FD0446052010F008FD201A0128F7
:1021100002D1386810F082FB49464046BDE8F047DE
:102120000AF036B870B50546052110F047FD0400E9
:1021300000D1FFDF04F112012846BDE870400AF02B
:1021400020B82DE9F04F91B04FF0000BADF834B04E
:10215000ADF804B047880C4605469246052138463E
:1021600010F02CFD060000D1FFDF24B1A780A4F8F9
:1021700006B0A4F808B0297809220B20B2EB111F91
:102180007ED12A7A04F1100138274FF00C084FF065
:1021900001090391102A74D2DFE802F073F3F2F11F
:1021A0008008D3898EA03DDCF4EFB7B7307B0228DE
:1021B00000D0FFDFA88908EBC001ADF80410302182
:1021C000ADF83410002C25D06081B5F80E900027B2
:1021D0001DE004EBC708317C88F80E10F189A8F8DF
:1021E0000C10CDF800906888042304AA296900F037
:1021F0002CFBBDF81010A8F8101009F10400BDF870
:1022000012107F1C1FFA80F9A8F81210BFB2608963
:10221000B842DED80EE1307B022800D0FFDFE9892A
:1022200008EBC100ADF804003020ADF83400287B85
:102230000A90001FC0B20F90002CEBD06181B5F85E
:102240001090002726E000BFCDF8009068886969EB
:1022500003AA0A9B00F0F9FA0A9804EBC70848445D
:102260001FFA80F908F10C0204A90F9812F03EFA47
:1022700018B188F80EB0A8F80CB0BDF80C1001E049
:10228000D4E0D1E0A8F81010BDF80E107F1CA8F81B
:102290001210BFB26089B842D6D8CBE00DA800902A
:1022A00001AB224629463046FFF719FBC2E0307BDE
:1022B000082805D0FFDF03E0307B082800D0FFDFCF
:1022C000E8891030ADF804003620ADF83400002C59
:1022D0003FD0A9896181F189A18127E0307B09285C
:1022E00000D0FFDFA88900F10C01ADF80410372100
:1022F000ADF83410002C2CD06081E8890090AB89B7
:10230000688804F10C02296956E0E8893921103007
:1023100080B2ADF80400ADF83410002C74D0A98957
:102320006181287A0E280AD002212173E989E1818E
:10233000288A0090EB8968886969039A3CE001214A
:10234000F3E70DA8009001AB224629463046FFF77F
:1023500057FB6FE0307B0A2800D0FFDF1220ADF87A
:102360000400ADF834704CB3A9896181A4F810B0B1
:10237000A4F80EB084F80C905CE020E002E031E0BC
:1023800039E042E0307B0B2800D0FFDF288AADF82F
:1023900034701230ADF8040084B104212173A9898E
:1023A0006181E989E181298A2182688A00902B8AEA
:1023B000688804F11202696900F047FA3AE0307B5C
:1023C0000C2800D0FFDF1220ADF80400ADF8347007
:1023D0003CB305212173A4F80AB0A4F80EB0A4F808
:1023E00010B027E00DA8009001AB224629463046E8
:1023F000FFF75AFA1EE00DA8009001AB22462946CD
:102400003046FFF7B5FB15E034E03B21ADF80400A2
:10241000ADF8341074B3A4F80690A4F808B084F8AA
:102420000AB007E010000020FFDF03E0297A01294D
:1024300017D0FFDFBDF80400AAF800006CB1BDF8AA
:1024400034002080BDF804006080BDF834003928D5
:1024500003D03C2801D086F80CB011B00020BDE8B4
:10246000F08F3C21ADF80400ADF8341014B1697A56
:10247000A172DFE7AAF80000EFE72DE9F8435688DC
:102480000F46804615460521304610F097FB0400A4
:1024900000D1FFDF123400943B46414630466A6863
:1024A00009F0EAFFB8E570B50D46052110F086FB8E
:1024B000040000D1FFDF294604F11200BDE870409E
:1024C00009F074BE70B50D46052110F077FB0400CD
:1024D00000D1FFDF294604F11200BDE8704009F089
:1024E00092BE70B50546052110F068FB040000D1CE
:1024F000FFDF04F1080321462846BDE870400422AE
:10250000AFE470B50546052110F058FB040000D17A
:10251000FFDF214628462368BDE870400522A0E47D
:1025200070B50646052110F049FB040000D1FFDF1D
:1025300004F1120009F02DFE401D20F0030511E00A
:10254000011D00880322431821463046FFF789FC0D
:1025500000280BD0607BABB2684382B26068011D7B
:1025600010F0E9F9606841880029E9D170BD70B5C3
:102570000E46054607F046F8040000D1FFDF0120B3
:10258000207266726580207820F00F00C01C20F059
:10259000F00030302070BDE8704007F036B82DE90B
:1025A000F0438BB00D461446814606A9FFF797FB12
:1025B000002814D14FF6FF7601274FF420588CB134
:1025C00003208DF800001020ADF8100007A805903A
:1025D00007AA204604A912F0A8F878B107200BB08A
:1025E000BDE8F0830820ADF808508DF80E708DF826
:1025F0000000ADF80A60ADF80C800CE00698A178F8
:1026000001742188C1818DF80E70ADF80850ADF8C5
:102610000C80ADF80A606A4602214846069BFFF727
:1026200087FBDCE708B501228DF8022042F60202A2
:10263000ADF800200A4603236946FFF73CFC08BDBD
:1026400008B501228DF8022042F60302ADF8002001
:102650000A4604236946FFF72EFC08BD00B587B083
:1026600079B102228DF800200A88ADF80820498847
:10267000ADF80A1000236A460521FFF759FB07B0A1
:1026800000BD1020FBE709B1072314E407207047C1
:1026900070B588B00D461446064606A9FFF71FFB25
:1026A00000280ED17CB10620ADF808508DF800004E
:1026B000ADF80A40069B6A460821DC813046FFF7E8
:1026C00037FB08B070BD05208DF80000ADF808504C
:1026D000F0E700B587B059B107238DF80030ADF8A9
:1026E0000820039100236A460921FFF721FBC6E772
:1026F0001020C4E770B588B00C460646002506A930
:10270000FFF7EDFA0028DCD106980121123009F01C
:1027100072FD9CB12178062921D2DFE801F0200565
:1027200005160318801E80B2C01EE28880B20AB16E
:10273000A3681BB1824203D90C20C2E71020C0E776
:10274000042904D0A08850B901E00620B9E7012986
:1027500013D0022905D004291CD005292AD007202E
:10276000AFE709208DF800006088ADF80800E08828
:10277000ADF80A00A068039023E00A208DF800005D
:102780006088ADF80800E088ADF80A00A0680A2566
:10279000039016E00B208DF800006088ADF808006B
:1027A000A088ADF80A00E088ADF80C00A0680B2501
:1027B000049006E00C208DF8000060788DF8080089
:1027C0000C256A4629463046069BFFF7B1FA78E7A2
:1027D00000B587B00D228DF80020ADF80810002359
:1027E0006A461946FFF7A4FA49E700B587B071B108
:1027F00002228DF800200A88ADF808204988ADF83B
:102800000A1000236A460621FFF792FA37E71020E4
:1028100035E770B586B0064601200D46ADF80810C4
:102820008DF80000014600236A463046FFF780FA23
:10283000040008D12946304605F0DEFC0021304670
:1028400005F0F8FC204606B070BDF8B51C461546EC
:102850000E46069F10F0E5FA2346FF1DBCB2314636
:102860002A4600940FF0CFFEF8BD30B41146DDE9E2
:1028700002423CB1032903D0002330BC08F029BE3A
:102880000123FAE71A8030BC704770B50C46054644
:10289000FFF72DFB2146284605F0BDFC2846BDE884
:1028A0007040012105F0C6BC4FF0E0224FF400401B
:1028B0000021C2F88001BFF34F8FBFF36F8F17481D
:1028C000016001601649900208607047134900B525
:1028D00000220A600A60124B4FF060721A600028F2
:1028E00008BF00BD0F4A104BDFF840C001280CD0D4
:1028F00002281CBFFFDF00BD032008601A604FF4F0
:10290000000000BFCCF8000000BD022008601A6083
:102910004FF04070F6E700B5FFDF00BD00F5004066
:1029200008F50140A802002014F5004004F501401C
:1029300070B50B2000F0BDF9082000F0BAF90021B5
:102940000B2000F0D4F90021082000F0D0F9F44C5D
:1029500001256560A5600020C4F84001C4F8440169
:10296000C4F848010B2000F0B5F9082000F0B2F9D6
:102970000B2000F091F9256070BD10B50B2000F020
:1029800098F9082000F095F9E5480121416081603F
:10299000E4490A68002AFCD10021C0F84011C0F8BF
:1029A0004411C0F848110B2000F094F9BDE8104024
:1029B000082000F08FB910B50B2000F08BF9BDE8AE
:1029C0001040082000F086B900B530B1012806D0CB
:1029D000022806D0FFDF002000BDD34800BDD34849
:1029E00000BDD248001D00BD70B5D1494FF0004078
:1029F0000860D04DC00BC5F80803CF480024046020
:102A0000C5F840410820C43500F053F9C5F83C41F1
:102A1000CA48047070BD08B5C14A002128B1012818
:102A200011D002281CD0FFDF08BD4FF48030C2F85F
:102A30000803C2F84803BB483C300160C2F84011AB
:102A4000BDE80840D0E74FF40030C2F80803C2F8F0
:102A50004803B44840300160C2F84411B3480CE068
:102A60004FF48020C2F80803C2F84803AD48443050
:102A70000160C2F84811AD48001D0068009008BD13
:102A800070B516460D460446022800D9FFDF002225
:102A9000A348012304F110018B4000EB8401C1F82D
:102AA000405526B1C1F84021C0F8043303E0C0F816
:102AB0000833C1F84021C0F8443370BD2DE9F0411E
:102AC0001D46144630B1012833D0022838D0FFDF2C
:102AD000BDE8F081891E002221F07F411046FFF7FA
:102AE000CFFF012D23D00020944D924F0126687016
:102AF0003E61914900203C3908600220091D0860B0
:102B00008D490420303908608B483D34046008202A
:102B10006C6000F0DFF83004C7F80403082000F010
:102B2000BBF88349F007091F08602E70D0E7012029
:102B3000DAE7012B02D00022012005E00122FBE7A9
:102B4000012B04D000220220BDE8F04198E70122C9
:102B5000F9E774480068704770B500F0D8F8704C19
:102B60000546D4F840010026012809D1D4F808030D
:102B7000C00305D54FF48030C4F80803C4F84061A1
:102B8000D4F8440101280CD1D4F80803800308D5F7
:102B90004FF40030C4F80803C4F84461012012F077
:102BA0008BFDD4F8480101280CD1D4F80803400368
:102BB00008D54FF48020C4F80803C4F84861022007
:102BC00012F07AFD5E48056070BD70B500F09FF8A8
:102BD0005A4D0446287850B1FFF706FF687818B1BF
:102BE0000020687012F068FD5548046070BD032035
:102BF000F8E74FF0E0214FF40010C1F800027047F1
:102C0000152000F067B84B4901200861082000F04A
:102C100061B848494FF47C10C1F80803002002460F
:102C200001EB8003C3F84025C3F84021401CC0B22B
:102C30000628F5D37047410A43F609525143C0F3C1
:102C4000080010FB02F000F5807001EB5020704787
:102C500010B5430B48F2376463431B0C5C020C60F5
:102C6000384C03FB0400384B4CF2F72443435B0D14
:102C700013FB04F404EB402000F580704012107048
:102C800008681844086010BD2C48406870472949FE
:102C90000120C1F800027047002809DB00F01F0284
:102CA000012191404009800000F1E020C0F80011AE
:102CB000704700280DDB00F01F0201219140400900
:102CC000800000F1E020C0F88011BFF34F8FBFF308
:102CD0006F8F7047002809DB00F01F02012191402F
:102CE0004009800000F1E020C0F8801270474907D9
:102CF000090E002804DB00F1E02080F80014704782
:102D000000F00F0000F1E02080F8141D70470C481F
:102D1000001F00680A4A0D49121D1160704700002B
:102D200000B0004004B500404081004044B1004084
:102D300008F5014000800040408500403800002038
:102D400014050240F7C2FFFF6F0C010001000001F3
:102D50000A4810B50468094909480831086012F0AA
:102D60003FFD0648001D046010BD064900200860B4
:102D70004FF0E0210220C1F88002704710050240A8
:102D800001000001FC1F0040374901200860704726
:102D900070B50D2000F049F8344C0020C4F8000153
:102DA0000125C4F804530D2000F050F825604FF0C1
:102DB000E0216014C1F8000170BD10B50D2000F0D5
:102DC00034F82A48012141600021C0F80011BDE813
:102DD00010400D2000F03AB8254810B50468244989
:102DE0002448083108602149D1F80001012804D0A5
:102DF000FFDF1F48001D046010BD1B48001D006858
:102E00000022C0B2C1F8002113F0A3F9F1E710B518
:102E1000164800BFD0F800110029FBD0FFF7DCFFF7
:102E2000BDE810400D2000F011B800280DDB00F0C7
:102E30001F02012191404009800000F1E020C0F80C
:102E40008011BFF34F8FBFF36F8F7047002809DBEE
:102E500000F01F02012191404009800000F1E020B4
:102E6000C0F880127047000004D5004000D0004038
:102E700010050240010000014FF0E0214FF000700A
:102E8000C1F8800101F5C071BFF34F8FBFF36F8FA1
:102E9000C1F80001394B802283F8002441F8800CEE
:102EA000704700B502460420354903E001EBC0033A
:102EB0001B792BB1401EC0B2F8D2FFDFFF2000BD4E
:102EC00041F8302001EBC00100224A718A710122D1
:102ED0000A7100BD2A4A002102EBC000017170474F
:102EE00010B50446042800D3FFDF254800EBC404D6
:102EF0002079012800D0FFDF6079A179401CC0B2A1
:102F0000814200D060714FF0E0214FF00070C1F8B5
:102F1000000210BD70B50425194E1A4C16E0217838
:102F200006EBC1000279012A08D1427983799A42DD
:102F300004D04279827156F8310080472078401CD5
:102F4000C0B22070042801D3002020706D1EEDB2A5
:102F5000E5D270BD0C4810B504680B490B48083128
:102F60000860064890F800044009042800D0FFDFFC
:102F7000FFF7D0FF0448001D046010BD19E000E019
:102F8000E00500205400002010050240010000016F
:102F90000548064A0168914201D1002101600449B7
:102FA000012008607047000058000020BEBAFECA29
:102FB00040E5014070B50C46054609F0F9FB214695
:102FC0002846BDE870400AF0DABC002A14BF4FF46E
:102FD00029614FF4A471002B14BF4FF429624FF400
:102FE000A47200280CBF0120002011449831002851
:102FF00018BF0420084470477047704770470000AE
:103000002CFFFFFFDBE5B15100600200CB00FFFFAA
:1030100084000000C1CF6A00FEA0D9111C1006C3B5
:1030200089CCFC7A7B3B49141906A8C030B5F84D11
:103030000446062CA9780ED2DFE804F0030E0E0E2B
:103040000509FFDF08E0022906D0FFDF04E00329BD
:1030500002D0FFDF00E0FFDFAC7030BD30B50446CA
:103060001038EB4D07280CD2DFE800F0040C060CFA
:103070000C0C0C00FFDF05E0287E112802D0FFDFDA
:1030800000E0FFDF2C7630BD2DE9F04111F0B8FCF7
:10309000044612F0EBFE201AC5B206200FF036FDF2
:1030A000044606200FF03AFD211AD94C207E122842
:1030B00018D000200F1807200FF028FD0646072023
:1030C0000FF02CFD301A3918207E13280CD0002068
:1030D0000144A078042809D000200844281AC0B26E
:1030E000BDE8F0810120E5E70120F1E70120F4E7E8
:1030F000C74810B590F825004108C54800F12600E2
:1031000005D00DF017FEBDE8104006F09DB80DF09B
:10311000F2FDF8E730B50446A1F120000D460A287B
:103120004AD2DFE800F005070C1C2328353A3F445B
:10313000FFDF42E0207820283FD1FFDF3DE0B448A8
:103140008178052939D0007E122836D020782428AD
:1031500033D0252831D023282FD0FFDF2DE0207851
:1031600022282AD0232828D8FFDF26E0207822280A
:1031700023D0FFDF21E0207822281ED024281CD075
:1031800026281AD0272818D0292816D0FFDF14E0C7
:103190002078252811D0FFDF0FE0207825280CD0DB
:1031A000FFDF0AE02078252807D0FFDF05E0207840
:1031B000282802D0FFDF00E0FFDF257030BD1FB5FB
:1031C00004466A46002001F09DFEB4B1BDF802201D
:1031D0004FF6FF700621824201D1ADF80210BDF812
:1031E0000420824201D1ADF80410BDF808108142DC
:1031F00003D14FF44860ADF8080068460EF07EF940
:1032000006F022F804B010BD70B514460D4606460F
:10321000FEF71FF858B90DB1A54201D90C2070BDB9
:10322000002408E056F82400FEF713F808B1102037
:1032300070BD641CE4B2AC42F4D3002070BD2DE933
:10324000F04105461F4690460E4600240068FEF7F2
:103250004DF830B9A98828680844401EFEF746F8A2
:1032600008B110203CE728680028A88802D0B8429E
:1032700002D850E00028F5D0092031E72968085D20
:10328000B8B1671CCA5D152A2ED03CDC152A3AD28B
:10329000DFE802F03912222228282A2A313139396E
:1032A00039393939393939392200085D30BB641C64
:1032B000A4B2A242F9D833E00228DDD1A01C085CF8
:1032C00088F80000072801D2400701D40A2007E748
:1032D000307840F0010015E0C143C90707E001283C
:1032E00007D010E00620FBE60107A1F1805100297C
:1032F000F5D01846F4E63078810701D50B20EFE6CB
:1033000040F0020030702868005D384484B2A8881C
:10331000A04202D2B0E74FF4485382B2A242ADD8E5
:103320000020DDE610B5027843F2022354080122A2
:10333000022C12D003DC3CB1012C16D106E0032C88
:1033400010D07F2C11D112E0002011E080790324ED
:10335000B4EB901F09D10A700BE08079B2EB901F9B
:1033600003D1F8E780798009F5D0184610BDFF2019
:103370000870002010BD08B500208DF8000024481A
:1033800090F82E1049B190F82F0002280ED0032893
:103390000ED0FFDF9DF8000008BD1D4869462530AE
:1033A00001F0FFFD0028F5D0FFDFF3E7032000E088
:1033B00001208DF80000EDE738B50C46054669465A
:1033C00001F0EFFD00280DD19DF80010207861F389
:1033D0004700207055F8010FC4F80100A888A4F830
:1033E0000500002038BD38B51378A8B1022813D0E5
:1033F000FF281AD007A46D46246800944C7905EB89
:103400009414247864F347031370032809D00FE061
:10341000F40100200302FF0123F0FE0313700228D1
:10342000F3D1D8B240F0010005E043F0FE00107087
:10343000107820F0010010700868C2F80100888838
:10344000A2F8050038BD02210FF0B8BB38B50C4614
:103450000978222901D2082038BDADF800008DF886
:10346000022068460DF0A8FC05F0EEFE050003D131
:1034700021212046FFF74EFE284638BD1CB500200E
:103480008DF80000CDF80100ADF80500FE4890F879
:103490002E00022801D0012000E000208DF8070056
:1034A00068460DF00FFD002800D0FFDF1CBD002294
:1034B0000A80437892B263F3451222F040020A80F8
:1034C00000780C282BD2DFE800F02A06090E11162E
:1034D000191C1F220C2742F0110009E042F01D00C8
:1034E00008800020704742F0110012E042F0100006
:1034F00040F00200F4E742F01000F1E742F0010072
:10350000EEE742F0010004E042F00200E8E742F09A
:10351000020040F00400E3E742F00400E0E7072087
:1035200070472DE9FF478AB00025BDF82C60824620
:103530001C4690468DF81C50700703D56068FDF757
:1035400088FE68B9D04F4FF0010997F82E0058B1A6
:1035500097F82F00022807D16068FDF7C7FE18B161
:1035600010200EB0BDE8F087300702D5A089802872
:1035700016D8700705D4B8F1000F02D097F82400D0
:1035800070B1E07DC0F300108DF81B00617D072055
:1035900041B1012906D00229E3D00429E1D12CE070
:1035A0000720DEE749468DF81790F00609D4A27D82
:1035B000072032B1012A04D0022A05D0042AD0D132
:1035C0001BE08DF8191002E002208DF819008DF82B
:1035D00015806068B0B107A9FFF7A4FE0028C0D12C
:1035E0009DF81C00FF280AD0606850F8011FCDF834
:1035F0000F108088ADF8130008E00620B1E743F211
:103600000220AEE7CDF80F50ADF81350E07B002854
:10361000F3D1207C0028F0D1607C0028EDD1A07C83
:103620000028EAD1E07CC006E7D18DF800A0BDF803
:103630002C00ADF80200A0680190A068029004F18F
:103640000F0001F0A2FC8DF80C00FFF794FE8DF83E
:103650000D009DF81C008DF80E008DF816508DF8A9
:103660001850E07D08A900F00F008DF81A00684698
:103670000EF08CF805F0E8FD73E7F0B58FB000258B
:103680008DF830508DF814508DF8345006468DF872
:103690002850019502950395049519B10FC901AC05
:1036A00084E80F00784CA078052801D004280CD1BC
:1036B00001986168884200D120B90398E168884286
:1036C00003D110B108200FB0F0BD207DC00601D598
:1036D0001F2700E0FF273B460DAA05A903A8FFF717
:1036E000AEFD0028EFD1A08AC10702D0C00600D4E9
:1036F000EE273B460AAA0CA901A8FFF7A0FD002867
:10370000E1D19DF81400C00701D00A20DBE7A08AB0
:10371000410708D4A17D31B19DF82810890702D056
:1037200043F20120CFE79DF82810C90709D04007D0
:1037300007D4208818B144F25061884201D907208B
:10374000C1E78DF818508DF81960BDF80800ADF884
:103750001A000198079006A80EF024F805F074FDF1
:103760000028B0D18DF820508DF82160BDF81000F0
:10377000ADF822000398099008A80EF035F805F07E
:1037800063FD00289FD101AD241D95E80F0084E85A
:103790000F00002097E770B586B00D46040005D0F5
:1037A000FDF7A4FD20B1102006B070BD0820FBE796
:1037B0002078C107A98802D0FF2902D303E01F297E
:1037C00001D20920F0E780073BD4FFF75DFC38B158
:1037D0002178C1F3C100012804D0032802D005E0FC
:1037E0001320E1E7284890F82400C8B1C8074FF03B
:1037F00001064FF0000502D08DF80F6001E08DF852
:103800000F50FFF7B8FD8DF8000020786946C0F32F
:10381000C1008DF8010060788DF80250C20801D017
:103820000720C1E778B1C20701D08DF80260820796
:1038300005D59DF8022042F002028DF802204007D3
:1038400003D50620B0E78DF80260002022780B181F
:10385000C2F38002DA7001EB40026388D380401C1F
:10386000A388C0B253810228F0D3207A0028E8D17F
:10387000607A0028E5D1A07A0028E2D1E07A002819
:10388000DFD1207BC00601E0F4010020D9D104F192
:10389000080001F07AFB8DF80E0068460DF0DFFBA2
:1038A00005F0D2FC00288DD18DF810608DF81150F4
:1038B000E088ADF81200ADF8145004A80DF022FC19
:1038C00005F0C2FC00288CD12078C00701D015205B
:1038D00000E01320FFF7C2FB002065E72DE9FF475A
:1038E0000220FD4E8DF804000027708EADF8060012
:1038F000B84643F202094CE001A80FF0C6F80500F3
:1039000006D0708EA8B3A6F83280ADF806803EE0EF
:10391000039CA07F01072DD504F124000090A28E06
:10392000BDF80800214604F1360301F0C5FC05008E
:1039300005D04D452AD0112D3CD0FFDF3AE0A07FC5
:1039400020F00801E07F420862F3C711A1778108E7
:1039500061F30000E07794F8210000F01F0084F884
:1039600020002078282826D129212046FFF7D2FBE5
:1039700021E014E040070AD5BDF8080004F10E016B
:1039800001F019FB05000DD04D4510D100257F1C1D
:10399000FFB202200FF0BAF8401CB842ACD8052D97
:1039A00011D008E0A07F20F00400A07703E0112DE3
:1039B00000D0FFDF0025BDF806007086052D04D07D
:1039C000284604B0CEE5A6F832800020F9E770B5AD
:1039D0000646FFF738FD054605F014FE040000D149
:1039E000FFDF6680207820F00F00801C20F0F000C0
:1039F000203020700320207295F83E006072BDE8F0
:103A0000704005F002BE2DE9F04786B0040000D1F9
:103A1000FFDF2078B04D20F00F00801C20F0F00078
:103A20007030207060680178491F1B2933D2DFE8AD
:103A300001F0FC32323255FB320EFBFB42FA3232DD
:103A40003278FAFAF9F832FAFAF7F6FAFA00C68892
:103A50003046FFF7F8FC0546304607F030FCE0B191
:103A60006068007A85F83E0021212846FFF752FB66
:103A70003046FEF757FB304603F0E2FE31460120A8
:103A800012F02CFEA87F20F01000A877FFF726FF89
:103A9000002800D0FFDF06B064E5207820F0F000B9
:103AA000203020700320207266806068007A607287
:103AB00005F0ABFDD8E7C5882846FFF7C4FC00B980
:103AC000FFDF60680079012800D0FFDF6068017ABD
:103AD00006B02846BDE8F04707F0D6BDC688304698
:103AE000FFF7B1FC050000D1FFDF05F08EFD606837
:103AF00031460089288160684089688160688089D2
:103B0000A881012012F0EAFD0020A875A87F00F02E
:103B100003000228BFD1FFF7E1FE0028BBD0FFDF82
:103B2000B9E7007928B10228B5D03C28B3D0FFDF2F
:103B3000B1E705F06AFD6668B6F806A0307A361D72
:103B4000012806D0687E814605F0EAFA070003D115
:103B500001E0E878F7E7FFDF0022022150460FF08E
:103B600024F8040000D1FFDF22212046FFF7D2FA1B
:103B70003079012800D00220A17F804668F301013E
:103B8000A177308B2081708B6081B08BA08184F80D
:103B900022908DF80880B8680090F86801906A4615
:103BA000032150460FF001F800B9FFDFB888ADF8E7
:103BB0001000B8788DF8120004AA052150460EF0C6
:103BC000F4FF00B9FFDFB888ADF80C00F8788DF885
:103BD0000E0003AA042150460EF0E7FF00B9FFDFF4
:103BE000062106F1120001F004FA40B37079800753
:103BF00000D5FFDF7179E07D61F34700E075D6F80D
:103C00000600A0617089A083062106F10C0001F076
:103C1000F0F9F0B195F825004108607806E043E03E
:103C20003BE072E05AE04FE031E045E061F34700ED
:103C30006070D5F82600C4F80200688D12E0E07DBF
:103C400020F0FE00801CE075D6F81200A061F08A1A
:103C5000D9E7607820F0FE00801C6070F068C4F83E
:103C60000200308AE080B8F1010F04D0B8F1020FF1
:103C700005D0FFDF0FE70320FFF7D8F90BE7287E19
:103C8000122800D0FFDF1120FFF7E8F903E706B0A4
:103C90002046BDE8F04701F09BBD05F0B6FC15F8E5
:103CA000300F40F0020005E005F0AFFC15F8300FD2
:103CB00040F004002870EEE6287E132809D015286D
:103CC000D8D11620FFF7CAF906B0BDE8F04705F0D5
:103CD0009CBC1420F6E70000F4010020A978052917
:103CE00009D00429C6D105F090FC022006B0BDE839
:103CF000F047FFF79BB900790028BBD0E87801F0C6
:103D00002BF905F082FC0320F0E7287E122802D16F
:103D1000687E01F021F91120D4E72DE9F05F054616
:103D200000784FF000080009DFF8B4A891460C466F
:103D3000464601286ED002286DD007280BD00A28ED
:103D40006AD0FFDFA9F8006014B1A4F80080668093
:103D50000020BDE8F09F6968012704F108000B7896
:103D60004FF0020B5B1F4FF6FF721B2B7ED2DFE87A
:103D700003F0647D7D7D0E7D7D7D7D7D7D217D7D5E
:103D80007D2BFDFCFBFA7D14D2F9E7F8F700C8881B
:103D90004FF01208102621469AE14FF01C080A261F
:103DA000BCB38888A0806868807920726868C07910
:103DB0006072C7E74FF01B08142654B3032020722B
:103DC00068688088A080BDE70A793C2ABAD00D1DBA
:103DD0004FF010082C26E4B16988A180298B6182FC
:103DE000298B2182698BA182A98BE1826B790246A2
:103DF000A91D1846FFF7F7FA2979002001290CD0F0
:103E000084F80FB0FF212176E06120626062A06239
:103E100098E70FE03BE15EE199E1E77320760AF174
:103E2000040090E80E00DAF81000C4E90930C4E993
:103E3000071287E7A9F800608AE72C264FF01D08D3
:103E4000002CF7D0A28005460F1D897B008861F306
:103E500000002880B97A490861F341002880B97AC6
:103E6000890861F382002880B97A00E00CE1C90872
:103E700061F3C3002880B97AAA1C0911491C61F3B7
:103E8000041000F07F0028807878B91CFFF7ABFAA7
:103E9000387D05F1090207F11501FFF7A4FA387B17
:103EA00001F0B6F82874787B01F0B2F86874F87EF7
:103EB000A874787AE874387F2875B87B6875388A72
:103EC000E882DAF81C10A961B97A504697F808A080
:103ED000C1F34111012904D0008C504503D2824620
:103EE00009E0FFDF10E0022903D0288820F06000FD
:103EF00009E0504504D1288820F06000403002E0FD
:103F0000288840F060002880A4F824A0524607F1D9
:103F10001D01A8699BE011264FF02008002C89D0D4
:103F2000A280686804F10A02007920726868007B48
:103F3000607269688B1D48791946FFF754FA01E7EA
:103F40000A264FF02108002CE9D08888A0806868F4
:103F5000807920726868C07960729AF8301006E043
:103F600078E06BE052E07FE019E003E03AE021F016
:103F70000401A6E00B264FF02208002CCFD0C88801
:103F8000A0806868007920726868007A01F040F8C3
:103F900060726868407A01F03BF8A072D2E61C2695
:103FA0004FF02608002CBAD0A28068684079607271
:103FB0006868007AA0720AF1040090E80E00DAF84E
:103FC0001000C4E90530C4E90312686800793C2890
:103FD00003D0432803D0FFDFB4E62772B2E684F8AB
:103FE00008B0AFE610264FF02408002C97D0888840
:103FF000A0806868807920816868807A60816868BC
:104000000089A08168688089E0819BE610264FF0D6
:104010002308002C98D08888A0806868C0882081F8
:1040200068680089608168684089A08168688089C3
:10403000E0819AF8301021F0020142E030264FF082
:104040002508002C9AD0A2806968282249680AF0C5
:10405000AAF977E62A264FF02F08002C8ED0A280EE
:1040600069682222091DF2E714264FF01B08002C74
:1040700084D0A280686800790128B0D02772DAE97C
:104080000710C4E903105DE64A46214660E0287A3D
:10409000012803D0022817D0FFDF53E610264FF087
:1040A0001F08002CA2D06888A080A8892081E889F8
:1040B0006081288AA081688AE0819AF8301021F016
:1040C00001018AF830103DE64FF01208102668888A
:1040D00000F07CFF36E6287AC8B3012838D00228E1
:1040E00036D0032801D0FFDF2CE609264FF0110857
:1040F000002C8FD06F883846FFF7A5F990F822A0E2
:10410000A780687A2072042138460EF069FD0521E7
:1041100038460EF065FD002138460EF061FD0121A4
:1041200038460EF05DFD032138460EF059FD0221A0
:1041300038460EF055FD062138460EF051FD072198
:1041400038460EF04DFD504600F006FFFAE5FFE759
:104150002846BDE8F05F01F0C5BC70B5012803D06A
:10416000052800D0FFDF70BD8DB22846FFF76BF940
:10417000040000D1FFDF20782128F4D005F042FAB6
:1041800080B1017821F00F01891C21F0F00110317C
:1041900001700221017245800020A075BDE87040C9
:1041A00005F033BA21462846BDE870401322FFF7D8
:1041B0004DB92DE9F04116460C00804600D1FFDFD5
:1041C000307820F00F00801C20F0F00010303070AC
:1041D0002078012804D0022818D0FFDFBDE8F08144
:1041E0004046FFF730F9050000D1FFDF0320A87536
:1041F00005F00BFA94E80F00083686E80F00F8483F
:1042000010F8301F41F001010170E7E74046FFF769
:104210001AF9050000D1FFDFA1884FF6FF700027D3
:10422000814202D1E288824203D0814201D1E088FA
:1042300040B105F0EAF994E80F00083686E80F006F
:10424000AF75CBE7A87D0128C8D17823002241466D
:1042500012F09AF90220A875C0E738B505460C4659
:104260000846FCF7F6FF70BB232D4AD006DC202D54
:104270000DD0212D23D0222D06D13DE0242D46D076
:10428000252D32D03F2D47D00725284638BD0021A7
:10429000052012F0F9F908B1112038BDA01C0DF06D
:1042A00080F904F0D1FF0500EFD100220823114668
:1042B000052012F069F90528E7D0FFDFE5E760681F
:1042C000FDF70BF808B1102038BD618820886A46D8
:1042D0000DF01BFC04F0B8FF0500D6D16068002883
:1042E000D3D0BDF800100180CFE7A07800F0010125
:1042F00020880DF03BFC17E0206801F09FFE05468A
:10430000C3E7207800F001000CF0E8FC0CE06188C5
:1043100020880DF076FB07E0207800F001008DF892
:10432000000068460CF0A5FF04F08EFFE7E770B5CB
:1043300005460C460846FCF7B2FF08B1102070BDD8
:10434000202D07D0212D0DD0222D0BD0252D09D0C9
:10435000072070BD2088A11C0CF092FDBDE87040C4
:1043600004F072BF062070BD9D482530704708B527
:10437000342200219A480AF040F80120FEF756FE48
:104380001120FEF76BFE96496846263105F0D0F8FD
:1043900093489DF8002010F8251F62F3470121F093
:1043A00001010170002141724FF46171A0F8071002
:1043B00002218172FEF79CFE00B1FFDFFDF712F8CB
:1043C00001F0CFF908BD10B50C464022002120466F
:1043D0000AF013F8A07F20F00300A07720202070BF
:1043E0000020A07584F8230010BD70472DE9FC4122
:1043F0000746FCF72EFF10B11020BDE8FC81784E77
:1044000006F12501D6F825000090B6F82950ADF840
:10441000045096F82B408DF806403846FEF7CCFF46
:104420000028EAD1FEF764FE0028E6D0009946F89D
:10443000251FB580B471E0E710B50446FCF72FFFE7
:1044400008B1102010BD66486549224690F8250045
:1044500026314008FEF7C7FF002010BD3EB50446D8
:104460000D460846FCF71BFF08B110203EBD14B1F5
:1044700043F204003EBD5A488078052803D0042842
:1044800001D008203EBD694602A80AF0BEFB2A46BC
:1044900069469DF80800FEF7A6FF00203EBDFEB568
:1044A0000D4604004FF0000711D00822FEF7ACFEC5
:1044B000002811D1002608E054F826006946FEF7CE
:1044C00031FF002808D1761CF6B2AE42F4D30CF0CE
:1044D0004FFB10B143F20320FEBD414E86F824701D
:1044E0000CB300271BE000BF54F8270002A9FEF719
:1044F00019FF00B1FFDF9DF808008DF8000054F8A7
:10450000270050F8011FCDF801108088ADF8050094
:1045100068460CF052FB00B1FFDF7F1CFFB2AF42D8
:10452000E2D386F824500020FEBD2DE9F0478AB082
:104530001546894604001FD00F4608222946FEF77B
:1045400063FE002811D1002614E000BF54F82600B5
:104550006946103000F025FD002806D147B157F814
:104560002600FCF776FE18B110200AB0BDE8F087EF
:10457000761CF6B2AE42E9D30026A5F101081BE095
:1045800006F1010A0AF0FF0712E000BF54F8260006
:10459000017C4A0854F827100B7CB2EB530F05D16D
:1045A00006221130113109F0D1FE58B17F1CFFB243
:1045B000AF42EBD30AF0FF064645E1DB4E4624B19D
:1045C000012003E043F20520CFE700200CF01AFBA6
:1045D00010B90CF023FB28B143F20420C5E700001A
:1045E000F401002064B300270DF1170826E000BF96
:1045F00054F827006946103000F0D3FC00B1FFDF0B
:1046000054F82700102250F8111FCDF801108088AF
:10461000ADF8050054F827100DF1070009F0C3FEAE
:1046200096B156F827101022404609F0BCFE6846A5
:104630000CF0A8FA00B1FFDF7F1CFFB2AF42D7D366
:10464000FEF71CFF002090E7404601F0EBFCEEE790
:1046500030B585B00446FDF7C5F830B906200EF038
:1046600055FA10B1062005B030BD2046FCF7F1FD2B
:1046700018B96068FCF73AFE08B11020F3E76088CB
:104680004AF2B811884206D82078F94D28B101289D
:1046900006D0022804D00720E5E7FEF729FD18E040
:1046A0006078022804D0032802D043F20220DAE71F
:1046B00085F82F00C1B200200090ADF80400022957
:1046C0002CD0032927D0FFDF68460CF033FB04F021
:1046D000BBFD0028C7D1606801F097FC207858B175
:1046E00001208DF800000DF1010001F09BFC6846EF
:1046F0000DF0A1FA00B1FFDF207885F82E00FEF75B
:10470000BDFE608860B1A88580B20CF073FA00B17C
:10471000FFDF0020A7E78DF80500D5E74020FAE786
:104720004FF46170EFE710B50446FCF7B8FD20B90F
:10473000606838B1FCF7D1FD08B1102010BD606889
:1047400001F070FCCA4830F82C1F6180C17861709C
:1047500080782070002010BD2DE9F843144689466A
:104760000646FCF79CFDA0B94846FCF7BFFD80B9A2
:104770002046FCF7BBFD60B9BD4DA878012800D1EB
:104780003CB13178FF2906D049B143F20400BDE8BD
:10479000F8831020FBE7012801D00420F7E7CCB311
:1047A000052811D004280FD069462046FEF77FFE69
:1047B0000028ECD1217D49B1012909D0022909D075
:1047C000032909D00720E2E70820E0E7024604E0D9
:1047D000012202E0022200E003228046234617461F
:1047E00000200099FEF79DFE0028D0D1A0892880E6
:1047F000A07BE875BDF80000A882AF75BDF8001079
:10480000090701D5A18931B1A1892980C00704D048
:10481000032003E006E08021F7E70220FEF706FC14
:1048200086F800804946BDE8F8430020FEF725BF22
:104830007CB58F4C05460E46A078022803D003288D
:1048400001D008207CBD15B143F204007CBD0720D7
:104850000EF064F910B9A078032806D0FEF714FC16
:1048600028B1A078032804D009E012207CBD1320D1
:104870007CBD304600F053FB0028F9D1E670FEF70E
:104880007AFD0AF0FFF801208DF800008DF8010094
:104890008DF802502088ADF80400E07D8DF8060008
:1048A00068460DF071F804F0CFFC0028E0D1A07844
:1048B000032805D05FF00400FEF7B8FB00207CBDA4
:1048C000E07800F03CFB0520F6E71CB510B143F2A0
:1048D00004001CBD664CA078042803D0052801D034
:1048E00008201CBD00208DF8000001218DF801106A
:1048F0008DF8020068460DF047F804F0A5FC00288A
:10490000EFD1A078052805D05FF00200FEF78EFBFE
:1049100000201CBDE07800F01FFB0320F6E72DE926
:10492000FC4180460E4603250846FCF7DFFC0028C4
:1049300066D14046FEF787FD040004D02078222887
:1049400004D2082059E543F2020056E5A07F00F0AA
:1049500003073EB1012F0CD000203146FEF72FFC9B
:104960000500EFD1012F06D0022F1AD0FFDF284615
:1049700043E50120F1E7A07D3146022801D011B1C5
:1049800007E0112039E56846FCF760FE0028D9D120
:104990006946404606F03BFE0500E8D10120A075BF
:1049A000E5E7A07D032804D1314890F83000C00726
:1049B00001D02EB30EE026B1A07F40071ED4002107
:1049C00000E00121404606F042FE0500CFD1A0756F
:1049D000002ECCD03146404600F0EDFA05461128B5
:1049E000C5D1A07F4107C2D4316844F80E1F716859
:1049F000616040F0040020740025B8E71125B6E797
:104A00001020FAE470B50C460546FEF71CFD0100C7
:104A100005D022462846BDE87040FEF717BD43F298
:104A2000020070BD10B5012807D1114B9B78012BF6
:104A300000D011B143F2040010BD0CF00DF9BDE837
:104A4000104004F001BC012300F090BA00231A4684
:104A5000194600F08BBA70B506460C460846FCF7BE
:104A6000F8FB18B92068FCF71AFC18B1102070BDCB
:104A7000F4010020F84D2A7E112A04D0132A00D315
:104A80003EB10820F3E721463046FEF784FE60B1D0
:104A9000EDE70920132A0DD0142A0BD0A188FF2995
:104AA000E5D31520FEF7DAFA0020D4E90012C5E9B3
:104AB0000712DCE7A1881F29D9D31320F2E71CB520
:104AC000E548007E132801D208201CBD00208DF887
:104AD000000068460CF016FB04F0B6FB0028F4D189
:104AE0001120FEF7BBFA00201CBD2DE9F04FDFF8C6
:104AF00068A3814691B09AF818009B4615460C466B
:104B0000132803D3FFF7DBFF00281FD12046FCF753
:104B1000A0FB78BB2846FCF79CFB58BB20784FF0E5
:104B20000107C0074FF0000102D08DF83A7001E094
:104B30008DF83A1020788846C0F3C1008DF8000047
:104B400060788DF80910C10803D0072011B0BDE8C6
:104B5000F08F80B1C10701D08DF80970810705D5AC
:104B60009DF8091041F002018DF80910400704D5A5
:104B70000620EBE720E08DF809709DF80900810719
:104B800003D540F001008DF8090000206E4606EBC9
:104B9000400162884A81401CA288C0B20A82032870
:104BA000F5D32078C0F3C100012821D003281FD0FD
:104BB0004846FCF74EFB08B11020C7E799F8000003
:104BC000400808D0012809D0022807D0032805D0C2
:104BD00043F20220BAE78DF8028001E08DF80270FE
:104BE000484650F8011FCDF803108088ADF8070043
:104BF000FEF7C1FB8DF801000020424606EB4001A4
:104C00002B88CB826B888B83AB884B84EB880B859E
:104C1000401CCA85C0B28A860328EFD3E088ADF86D
:104C20003C0068460CF01BFB00288ED19AF8180057
:104C30005546112801D0082088E706200DF06EFFA8
:104C400038B12078C0F3C100012804D0032802D075
:104C500006E012207AE795F8240000283FF475AFAB
:104C6000FEF712FA022801D213206FE7584600F02F
:104C700056F90028A1D185F819B068460CF018FC47
:104C800004F0E2FA040098D1687E00F058F912208E
:104C9000FEF7E4F9204659E770B56F4D287E1228DB
:104CA00001D00820E3E60CF006FC04F0CDFA040085
:104CB00005D1687E00F050F91120FEF7CFF92046AB
:104CC000D5E670B5064615460C460846FCF7E7FAE9
:104CD00018B92846FCF7E3FA08B11020C7E62A46BF
:104CE000214630460CF0F1FE04F0AEFA0028F5D172
:104CF00021787F29F2D10520B9E67CB505460C461E
:104D00000846FCF7A6FA08B110207CBD2846FEF73D
:104D10009AFB20B10078222804D208207CBD43F2FF
:104D200002007CBD4C4890F83000400701D51120AE
:104D30007CBD2178C80802D16078C20801D0072064
:104D40007CBD890801D1800801D006207CBDADF86A
:104D5000005020788DF8020060788DF80300022062
:104D6000ADF8040068460BF06CFD04F06DFA7CBDF4
:104D700070B586B014460D460646FEF764FB28B1B2
:104D80000078222805D2082006B070E643F202001F
:104D9000FAE72846FCF7AAFA20B944B12046FCF706
:104DA0009CFA08B11020EFE700202060A0802A487C
:104DB00090F83000800701D51120E5E703A93046BF
:104DC0000BF07CFD18B100BF04F03EFADCE7ADF853
:104DD0000060BDF81400ADF80200BDF81600ADF893
:104DE0000400BDF81000BDF81210ADF80600ADF8D3
:104DF00008107DB1298809B1ADF80610698809B19C
:104E0000ADF80210A98809B1ADF80810E98809B118
:104E1000ADF80410DCB1BDF80610814201D9081AC2
:104E20002080BDF80210BDF81400814201D9081A93
:104E30006080BDF80800BDF80410BDF816200144DC
:104E4000BDF812001044814201D9081AA0806846BA
:104E50000BF002FEB8E70000F40100201CB5724917
:104E60000968CDE9001068460CF0FBF904F0ECF994
:104E70001CBD1CB500200090019068460CF0F1F9B3
:104E800004F0E2F91CBD70B505460C460846FCF777
:104E900006FA08B11020EAE5214628460CF03AF857
:104EA000BDE8704004F0D0B93EB505460C46084652
:104EB000FCF7F5F908B110203EBD002000900190EC
:104EC0000290ADF800502089ADF8080020788DF8E8
:104ED0000200606801902089ADF808006089ADF893
:104EE0000A0068460CF028F804F0AEF93EBD0EB595
:104EF000ADF800000020019068460CF01DF804F0A9
:104F0000A3F90EBD10800888508048889080C8881A
:104F100010818888D080002050819081704710B522
:104F2000044604F0FDF830B1407830B1204604F07A
:104F300010FC002010BD052010BD122010BD10B5C2
:104F400004F0EEF8040000D1FFDF607800B9FFDF65
:104F50006078401E607010BD10B504F0E1F80400E8
:104F600000D1FFDF6078401C607010BD1CB5ADF84B
:104F700000008DF802308DF803108DF8042068468B
:104F80000CF066FD04F060F91CBD0CB527A2D2E957
:104F90000012CDE900120079694601EB501000784B
:104FA0000CBD0278520804D0012A02D043F202203C
:104FB0007047FEF7B7B91FB56A46FFF7A3FF68460B
:104FC0000CF0ACFA04F040F904B010BD70B50C0060
:104FD00006460DD0FEF737FA050000D1FFDFA680A8
:104FE00028892081288960816889A081A889E08139
:104FF0003DE510B500231A4603E0845C2343521CB0
:10500000D2B28A42F9D30BB1002010BD012010BDED
:1050100000B530B1012803D0022801D0FFDF002005
:1050200000BDFF2000BD0000485502000706050432
:105030000302010010B50446FCF70BF908B110207B
:1050400010BD2078C0F30210042807D86078072824
:1050500004D3A178102901D8814201D2072010BDC4
:10506000E078410706D421794A0703D4000701D428
:10507000080701D5062010BD002010BD10B513781B
:105080005C08837F64F3C713837713789C08C37F1E
:1050900064F30003C3771078C309487863F34100D1
:1050A000487013781C090B7864F347130B7013785E
:1050B000DB0863F3000048705078487110BD10B5EC
:1050C000C4780B7864F300030B70C478640864F34D
:1050D00041030B70C478A40864F382030B70C47896
:1050E000E40864F3C3030B700379117863F30001E0
:1050F000117003795B0863F34101117003799B0818
:1051000063F3820111700079C00860F3C30111706C
:1051100010BD70B514460D46064604F073FA80B112
:105120000178182221F00F01891C21F0F001A03133
:1051300000F8081B214609F036F9BDE8704004F07C
:1051400064BA29463046BDE870401322FEF77EB9A6
:105150002DE9F047064608A8904690E830048946B5
:105160001F4614220021284609F047F90021CAF8F9
:105170000010B8F1000F03D0B9F1000F03D114E013
:105180003878C00711D02068FCF789F8C0BBB8F1A7
:10519000000F07D120681230286020681430686042
:1051A0002068A8602168CAF800103878800724D5E4
:1051B0006068FCF792F818BBB9F1000F21D0FFF737
:1051C000D3F80168C6F868118188A6F86C11807957
:1051D00086F86E0101F015FDF94FEF60626862B16B
:1051E00096F8680106F2691140081032FEF7FBF8E4
:1051F00010223946606809F0D6F80020BDE8F08733
:1052000006E0606820B1E8606068C6F86401F4E711
:105210001020F3E730B5054608780C4620F00F0063
:10522000401C20F0F001103121700020607095F8D2
:10523000230030B104280FD0052811D0062814D03F
:10524000FFDF20780121B1EB101F04D295F8200078
:1052500000F01F00607030BD21F0F000203002E04F
:1052600021F0F00030302070EBE721F0F00040300A
:10527000F9E7F0B591B0022715460C4606463A46C6
:10528000ADF80870092103AB05F045F8049000283B
:1052900010D004208DF804008DF80170E0340996D8
:1052A00005948DF818500AA968460FF082F900B1EC
:1052B000FFDF012011B0F0BD10B588B00C460A998F
:1052C000ADF80000CBB11868CDF80200D3F80400A7
:1052D000CDF80600ADF80A20102203A809F063F803
:1052E00068460CF08BF903F0AFFF002803D1A17FD3
:1052F00041F01001A17708B010BD0020CDF80200E8
:10530000E6E72DE9F84F0646808A0D4680B28246D0
:10531000FEF799F804463078DFF8A48200274FF0B2
:105320000209A8F120080F2870D2DFE800F06FF220
:105330003708387D8CC8F1F0EFF35FF3F300A07FFE
:1053400000F00300022809D05FF0000080F00101A6
:1053500050460DF033FC050003D101E00120F5E7D4
:10536000FFDF98F85C10C90702D0D8F860000BE0A6
:10537000032105F11D0010F0CAFED5F81D0091496A
:10538000B0FBF1F201FB1200C5F81D007068686700
:10539000B068A8672078252800D0FFDFCAE0A07F8A
:1053A00000F00300022809D05FF0000080F0010146
:1053B00050460DF003FC060003D101E00120F5E7A3
:1053C000FFDF3078810702D52178252904D040F00D
:1053D00001003070BDE8F88F85F80090307F2871AB
:1053E00006F11D002D36C5E90206F3E7A07F00F0A7
:1053F0000300022808D0002080F0010150460DF083
:10540000DDFB040004D102E00120F5E7A7E1FFDFA6
:105410002078C10604D5072028703D346C60D9E798
:1054200040F008002070D5E7E07F000700D5FFDFDF
:10543000307CB28800F0010301B05046BDE8F04F67
:10544000092106F046B804B9FFDF716821B11022C6
:1054500004F1240008F0A7FF28212046FDF75AFE9A
:10546000A07F00F0030002280ED104F124000023E5
:1054700000901A4621465046FFF71EFF112807D01C
:1054800029212046FDF746FE307A84F82000A1E766
:10549000A07F000700D5FFDF14F81E0F40F00800C2
:1054A0002070E782A761E761C109607861F341007C
:1054B000014660F382016170307AE0708AE7A07F74
:1054C00000F00300022809D05FF0000080F0010125
:1054D00050460DF073FB040003D101E00120F5E715
:1054E000FFDF022104F1850010F011FE0420287076
:1054F00004F5B4706860B4F885002882304810382C
:105500007C346C61C5E9028064E703E024E15BE080
:105510002DE015E0A07F00F00300022807D0002056
:1055200080F0010150460DF049FB18B901E001205F
:10553000F6E7FFDF324621465046BDE8F84FE8E582
:1055400004B9FFDF20782128A1D93079012803D1BF
:10555000E07F40F00800E077324621465046FFF7F2
:10556000D8FD2046BDE8F84F2321FDF7D3BD3279A1
:10557000AA8005F108030921504604F0CCFEE8603A
:1055800010B10520287025E7A07F00F00300022855
:1055900008D0002080F0010150460DF00FFB040000
:1055A00003D101E00120F5E7FFDF04F162010223EE
:1055B0001022081F0DF089F907703179417009E751
:1055C0005402002040420F00A07F00F00300022898
:1055D00008D0002080F0010150460DF0EFFA0500E0
:1055E00003D101E00120F5E7FFDF95F8840000F02A
:1055F000030001287AD1A07F00F00307E07F10F0BC
:10560000010602D0022F04D133E095F8A000C007B4
:105610002BD0D5F8601121B395F88320087C62F374
:1056200087000874A17FCA09D5F8601162F34100B0
:105630000874D5F8601166F300000874AEB1D5F8AF
:105640006001102204F12401883508F0ACFE287EA8
:1056500040F001002876287820F0010005F888093C
:1056600000E016B1022F04D02DE095F88800C007A5
:1056700027D0D5F85C1121B395F88320087C62F31C
:1056800087000874A17FCA09D5F85C1162F3410054
:105690000874D5F85C1166F3000008748EB1D5F873
:1056A0005C01102204F12401883508F07CFE287882
:1056B00040F0010005F8180B287820F0010005F8EB
:1056C000A009022F44D0002000EB400005EBC000F1
:1056D00090F88800800709D595F87C00D5F86421FA
:1056E000400805F17D011032FDF77DFE8DF8009038
:1056F00095F884006A4600F003008DF8010095F8E3
:1057000088108DF8021095F8A0008DF8030021464E
:10571000504601F05FFA2078252805D0212807D0CF
:10572000FFDF2078222803D922212046FDF7F2FC52
:10573000A07F00F0030002280CD0002080F00101BF
:1057400050460DF04DFA00283FF44FAEFFDF41E622
:105750000120B9E70120F1E7706847703AE6FFDF02
:1057600038E670B5FE4C002584F85C5025660EF0D6
:10577000ECFE04F11001204603F000FF84F83050E5
:1057800070BD70B50D46FDF75EFE040000D1FFDF71
:105790004FF4B8720021284608F02FFE04F12400CF
:1057A0002861A07F00F00300022809D05FF001010A
:1057B00005F1E0000EF0CAFE002800D0FFDF70BD4A
:1057C0000221F5E70A46014602F1E0000EF0DFBED5
:1057D00070B50546406886B001780A2906D00D29C3
:1057E00033D00E292FD0FFDF06B070BD868830463B
:1057F000FDF729FE040000D1FFDF20782128F3D037
:1058000028281BD1686802210E3001F0D8F9A8B110
:1058100068680821801D01F0D2F978B104F12401F3
:1058200030460CF0B3F803F00FFD00B1FFDF06B017
:105830002046BDE870402921FDF76CBC06B0BDE8EC
:10584000704003F0E2BE012101726868C6883046EC
:10585000FDF7F9FD040000D1FFDFA07F00F0030198
:10586000022902D120F01000A077207821280AD048
:105870006868017A09B1007980B1A07F00F0030067
:10588000022862D0FFDFA07F00F003000228ABD126
:10589000FEF724F80028A7D0FFDFA5E703F0B5FE48
:1058A000A17F08062BD5E07FC00705D094F8200023
:1058B00000F01F00102820D05FF0050084F82300BE
:1058C000207829281DD02428DDD13146042010F06D
:1058D00005FF22212046FDF71DFCA07F00F00300FC
:1058E000022830D05FF0000080F0010130460DF05A
:1058F00077F90028C7D0FFDFC5E70620DEE70420E0
:10590000DCE701F00300022808D0002080F001014C
:1059100030460DF053F9050003D101E00120F5E711
:10592000FFDF25212046FDF7F5FB03208DF8000061
:10593000694605F1E0000EF021FE0228A3D0002800
:10594000A1D0FFDF9FE70120CEE703F05EFE9AE7DC
:105950002DE9F04387B09946164688460746FDF77D
:1059600072FD04004BD02078222848D3232846D04B
:10597000E07F000743D4A07F00F00300022809D095
:105980005FF0000080F0010138460DF017F90500C6
:1059900002D00CE00120F5E7A07F00F00300022810
:1059A00005D00121002238460DF0FFF80546694672
:1059B000284601F036F9009800B9FFDF45B100989C
:1059C000E03505612078222806D0242804D007E09D
:1059D00000990020086103E025212046FDF79AFB8D
:1059E0000098012141704762868001A9C0E90289BF
:1059F0000EF0DFFD022802D0002800D0FFDF07B044
:105A0000BDE8F08370B586B00546FDF71CFD017852
:105A100022291ED9807F00F00300022808D0002030
:105A200080F0010128460DF0C9F804002FD101E0F3
:105A30000120F5E7FFDF2AE0B4F85E0004F162061A
:105A400030440178427829B121462846FFF711FCFD
:105A5000B0B9C9E6ADF804200921284602AB04F02C
:105A60005AFC03900028F4D005208DF80000694608
:105A700004F1E0000EF082FD022801D000B1FFDF4A
:105A800002231022314604F15E000CF054FFB4F8FA
:105A900060000028D0D1A7E610B586B00446FDF717
:105AA000D2FC017822291BD9807F00F00300022854
:105AB00008D0002080F0010120460DF07FF804009E
:105AC00003D101E00120F5E7FFDF06208DF800009B
:105AD000694604F1E0000EF051FD002800D0FFDF20
:105AE00006B010BD2DE9F05F05460C460027007892
:105AF000904601093E4604F1080BBA4602297DD0C2
:105B0000072902D00A2909D146E0686801780A29E4
:105B100005D00D2930D00E292ED0FFDFBBE1142790
:105B20001C26002C6BD08088A080FDF78CFC5FEADF
:105B3000000900D1FFDF99F817005A46400809F123
:105B40001801FDF750FC6868C0892082696851F827
:105B5000060FC4F812004868C4F81600A07E01E0E1
:105B60003402002020F0060040F00100A07699F8F1
:105B70001E0040F020014DE01A270A26002CD1D04B
:105B8000C088A080FDF75FFC050000D1FFDF59460B
:105B90002846FFF73FFB7EE10CB1A88BA080287A56
:105BA0000B287DD006DC01287BD0022808D00328F2
:105BB00004D135E00D2875D00E2874D0FFDF6AE1DE
:105BC0001E270926002CADD0A088FDF73CFC5FEA1B
:105BD000000900D1FFDF287B00F003000128207AB4
:105BE0001BD020F001002072297B890861F341005D
:105BF0002072297BC90861F3820001E041E1F2E0F3
:105C00002072297B090961F3C300207299F81E00F4
:105C100040F0400189F81E103DE140F00100E2E74C
:105C200013270D26002CAAD0A088FDF70CFC814676
:105C3000807F00F00300022808D0002080F00101DE
:105C4000A0880CF0BBFF050003D101E00120F5E7BF
:105C5000FFDF99F81E0000F00302022A50D0686F9F
:105C6000817801F003010129217A4BD021F0010153
:105C7000217283789B0863F3410121728378DB08EA
:105C800063F38201217283781B0963F3C3012172DC
:105C9000037863F306112172437863F3C71103E0BD
:105CA00061E0A9E090E0A1E0217284F809A0C17848
:105CB000A172022A29D00279E17A62F30001E1722D
:105CC0000279520862F34101E1720279920862F3AB
:105CD0008201E1720279D20862F3C301E172427972
:105CE000217B62F3000121734279520862F3410182
:105CF00021734279920862F382012173407928E08E
:105D0000A86FADE741F00101B2E74279E17A62F3B1
:105D10000001E1724279520862F34101E172427975
:105D2000920862F38201E1724279D20862F3C30100
:105D3000E1720279217B62F300012173027952083A
:105D400062F3410121730279920862F382012173A7
:105D50000079C00860F3C301217399F8000023287B
:105D600031D9262140E018271026E4B3A088FDF79A
:105D70006AFB8346807F00F00300022809D00020E0
:105D800080F00101A0880CF019FF5FEA000903D13F
:105D900001E00120F4E7FFDFE868A06099F8000067
:105DA00040F0040189F8001099F80100800708D537
:105DB000012020739BF8000023286CD92721584626
:105DC00051E084F80CA066E015270F265CB1A0888E
:105DD000FDF739FB814606225946E86808F06CFB5E
:105DE0000120A073A0E041E048463CE016270926C8
:105DF000E4B3287B20724EE0287B19270E26ACB333
:105E0000C4F808A0A4F80CA0012807D0022805D0E7
:105E1000032805D0042803D0FFDF0DE0207207E03F
:105E2000697B042801F00F0141F0800121721ED02E
:105E3000607A20F003006072A088FDF704FB05463D
:105E40000078212827D0232800D0FFDFA87F00F08A
:105E50000300022813D0002080F00101A0880CF07C
:105E6000BFFE22212846FDF755F914E004E0607AD0
:105E700020F00300401CDEE7A8F8006010E00120DD
:105E8000EAE70CB16888A080287A68B301280AD0B4
:105E900002284FD0FFDFA8F800600CB12780668091
:105EA0000020BDE8F09F15270F26002CE4D0A08825
:105EB000FDF7C9FA807F00F00300022808D0002017
:105EC00080F00101A0880CF079FE050003D101E00B
:105ED0000120F5E7FFDFD5F81D000622594608F03E
:105EE000EBFA84F80EA0D6E717270926002CC3D0BA
:105EF000A088FDF7A8FA8146807F00F00300022801
:105F000008D0002080F00101A0880CF057FE0500A9
:105F100003D101E00120F5E7FFDF6878800701D5B4
:105F2000022000E00120207299F800002328B2D955
:105F3000272159E719270E26002C9DD0A088FDF7B0
:105F400082FA5FEA000900D1FFDFC4F808A0A4F8D4
:105F50000CA084F808A0A07A40F00300A07299F881
:105F60001E10C90961F38200A07299F81F2099F8E8
:105F70001E1012EAD11F05D099F8201001F01F0160
:105F800010292BD020F00800A07299F81F10607A19
:105F900061F3C3006072697A01F003010129A2D1A3
:105FA00040F00400607299F81E0000F0030002281F
:105FB000E87A16D0217B60F300012173AA7A607B16
:105FC00062F300006073EA7A520862F341012173C0
:105FD000A97A490861F3410060735CE740F008006A
